{
  "address": "0x6a4dA1927d2a5c5fd33885A3a078952C9f499fd5",
  "abi": [
    {
      "inputs": [
        {
          "internalType": "address",
          "name": "_linkAddress",
          "type": "address"
        },
        {
          "internalType": "uint16",
          "name": "_endpointId",
          "type": "uint16"
        }
      ],
      "stateMutability": "nonpayable",
      "type": "constructor"
    },
    {
      "anonymous": false,
      "inputs": [
        {
          "indexed": true,
          "internalType": "bytes32",
          "name": "id",
          "type": "bytes32"
        }
      ],
      "name": "ChainlinkCancelled",
      "type": "event"
    },
    {
      "anonymous": false,
      "inputs": [
        {
          "indexed": true,
          "internalType": "bytes32",
          "name": "id",
          "type": "bytes32"
        }
      ],
      "name": "ChainlinkFulfilled",
      "type": "event"
    },
    {
      "anonymous": false,
      "inputs": [
        {
          "indexed": true,
          "internalType": "bytes32",
          "name": "id",
          "type": "bytes32"
        }
      ],
      "name": "ChainlinkRequested",
      "type": "event"
    },
    {
      "anonymous": false,
      "inputs": [
        {
          "indexed": true,
          "internalType": "address",
          "name": "previousOwner",
          "type": "address"
        },
        {
          "indexed": true,
          "internalType": "address",
          "name": "newOwner",
          "type": "address"
        }
      ],
      "name": "OwnershipTransferred",
      "type": "event"
    },
    {
      "anonymous": false,
      "inputs": [
        {
          "indexed": false,
          "internalType": "bytes32",
          "name": "requestId",
          "type": "bytes32"
        },
        {
          "indexed": false,
          "internalType": "bytes32",
          "name": "result",
          "type": "bytes32"
        }
      ],
      "name": "Result",
      "type": "event"
    },
    {
      "anonymous": false,
      "inputs": [
        {
          "indexed": false,
          "internalType": "address",
          "name": "to",
          "type": "address"
        },
        {
          "indexed": false,
          "internalType": "uint256",
          "name": "amount",
          "type": "uint256"
        }
      ],
      "name": "Withdraw",
      "type": "event"
    },
    {
      "anonymous": false,
      "inputs": [
        {
          "indexed": false,
          "internalType": "address",
          "name": "token",
          "type": "address"
        },
        {
          "indexed": false,
          "internalType": "address",
          "name": "to",
          "type": "address"
        },
        {
          "indexed": false,
          "internalType": "uint256",
          "name": "amount",
          "type": "uint256"
        }
      ],
      "name": "WithdrawTokens",
      "type": "event"
    },
    {
      "stateMutability": "payable",
      "type": "fallback"
    },
    {
      "inputs": [
        {
          "internalType": "address",
          "name": "_addr",
          "type": "address"
        }
      ],
      "name": "addr2str",
      "outputs": [
        {
          "internalType": "string",
          "name": "",
          "type": "string"
        }
      ],
      "stateMutability": "pure",
      "type": "function"
    },
    {
      "inputs": [
        {
          "internalType": "address",
          "name": "_token",
          "type": "address"
        },
        {
          "internalType": "address",
          "name": "_spender",
          "type": "address"
        },
        {
          "internalType": "uint256",
          "name": "_amount",
          "type": "uint256"
        }
      ],
      "name": "approveToken",
      "outputs": [],
      "stateMutability": "nonpayable",
      "type": "function"
    },
    {
      "inputs": [
        {
          "internalType": "address",
          "name": "",
          "type": "address"
        }
      ],
      "name": "approvedAddresses",
      "outputs": [
        {
          "internalType": "bool",
          "name": "",
          "type": "bool"
        }
      ],
      "stateMutability": "view",
      "type": "function"
    },
    {
      "inputs": [],
      "name": "calledInBlock",
      "outputs": [
        {
          "internalType": "uint256",
          "name": "",
          "type": "uint256"
        }
      ],
      "stateMutability": "view",
      "type": "function"
    },
    {
      "inputs": [
        {
          "internalType": "uint16",
          "name": "",
          "type": "uint16"
        },
        {
          "internalType": "uint16",
          "name": "",
          "type": "uint16"
        }
      ],
      "name": "chainPriceLookup",
      "outputs": [
        {
          "internalType": "uint256",
          "name": "",
          "type": "uint256"
        }
      ],
      "stateMutability": "view",
      "type": "function"
    },
    {
      "inputs": [
        {
          "internalType": "uint16",
          "name": "",
          "type": "uint16"
        }
      ],
      "name": "deliveryAddressLookup",
      "outputs": [
        {
          "internalType": "bool",
          "name": "cached",
          "type": "bool"
        },
        {
          "internalType": "string",
          "name": "addressString",
          "type": "string"
        }
      ],
      "stateMutability": "view",
      "type": "function"
    },
    {
      "inputs": [],
      "name": "endpointId",
      "outputs": [
        {
          "internalType": "uint16",
          "name": "",
          "type": "uint16"
        }
      ],
      "stateMutability": "view",
      "type": "function"
    },
    {
      "inputs": [
        {
          "internalType": "bytes32",
          "name": "_requestId",
          "type": "bytes32"
        },
        {
          "internalType": "bytes32",
          "name": "_result",
          "type": "bytes32"
        }
      ],
      "name": "fulfillNotificationOfBlock",
      "outputs": [],
      "stateMutability": "nonpayable",
      "type": "function"
    },
    {
      "inputs": [
        {
          "internalType": "uint16",
          "name": "_destinationChainId",
          "type": "uint16"
        },
        {
          "internalType": "uint16",
          "name": "_outboundProofType",
          "type": "uint16"
        }
      ],
      "name": "getPrice",
      "outputs": [
        {
          "internalType": "uint256",
          "name": "price",
          "type": "uint256"
        }
      ],
      "stateMutability": "view",
      "type": "function"
    },
    {
      "inputs": [
        {
          "internalType": "address",
          "name": "_relayerAddress",
          "type": "address"
        }
      ],
      "name": "isApproved",
      "outputs": [
        {
          "internalType": "bool",
          "name": "",
          "type": "bool"
        }
      ],
      "stateMutability": "view",
      "type": "function"
    },
    {
      "inputs": [
        {
          "internalType": "uint16",
          "name": "",
          "type": "uint16"
        }
      ],
      "name": "jobs",
      "outputs": [
        {
          "internalType": "address",
          "name": "oracle",
          "type": "address"
        },
        {
          "internalType": "bytes32",
          "name": "id",
          "type": "bytes32"
        },
        {
          "internalType": "uint256",
          "name": "fee",
          "type": "uint256"
        },
        {
          "internalType": "uint256",
          "name": "calledInBlock",
          "type": "uint256"
        }
      ],
      "stateMutability": "view",
      "type": "function"
    },
    {
      "inputs": [
        {
          "internalType": "uint16",
          "name": "_dstChainId",
          "type": "uint16"
        },
        {
          "internalType": "uint16",
          "name": "_outboundProofType",
          "type": "uint16"
        },
        {
          "internalType": "uint64",
          "name": "_outboundBlockConfirmations",
          "type": "uint64"
        }
      ],
      "name": "notifyOracle",
      "outputs": [],
      "stateMutability": "nonpayable",
      "type": "function"
    },
    {
      "inputs": [],
      "name": "owner",
      "outputs": [
        {
          "internalType": "address",
          "name": "",
          "type": "address"
        }
      ],
      "stateMutability": "view",
      "type": "function"
    },
    {
      "inputs": [],
      "name": "renounceOwnership",
      "outputs": [],
      "stateMutability": "nonpayable",
      "type": "function"
    },
    {
      "inputs": [
        {
          "internalType": "address",
          "name": "_oracleAddress",
          "type": "address"
        },
        {
          "internalType": "bool",
          "name": "_approve",
          "type": "bool"
        }
      ],
      "name": "setApprovedAddress",
      "outputs": [],
      "stateMutability": "nonpayable",
      "type": "function"
    },
    {
      "inputs": [
        {
          "internalType": "uint16",
          "name": "_dstChainId",
          "type": "uint16"
        },
        {
          "internalType": "address",
          "name": "_deliveryAddress",
          "type": "address"
        }
      ],
      "name": "setDeliveryAddress",
      "outputs": [],
      "stateMutability": "nonpayable",
      "type": "function"
    },
    {
      "inputs": [
        {
          "internalType": "uint16",
          "name": "_chain",
          "type": "uint16"
        },
        {
          "internalType": "address",
          "name": "_oracle",
          "type": "address"
        },
        {
          "internalType": "bytes32",
          "name": "_id",
          "type": "bytes32"
        },
        {
          "internalType": "uint256",
          "name": "_fee",
          "type": "uint256"
        }
      ],
      "name": "setJob",
      "outputs": [],
      "stateMutability": "nonpayable",
      "type": "function"
    },
    {
      "inputs": [
        {
          "internalType": "uint16",
          "name": "_destinationChainId",
          "type": "uint16"
        },
        {
          "internalType": "uint16",
          "name": "_outboundProofType",
          "type": "uint16"
        },
        {
          "internalType": "uint256",
          "name": "_price",
          "type": "uint256"
        }
      ],
      "name": "setPrice",
      "outputs": [],
      "stateMutability": "nonpayable",
      "type": "function"
    },
    {
      "inputs": [
        {
          "internalType": "address",
          "name": "ulnAddress",
          "type": "address"
        }
      ],
      "name": "setUln",
      "outputs": [],
      "stateMutability": "nonpayable",
      "type": "function"
    },
    {
      "inputs": [
        {
          "internalType": "address",
          "name": "newOwner",
          "type": "address"
        }
      ],
      "name": "transferOwnership",
      "outputs": [],
      "stateMutability": "nonpayable",
      "type": "function"
    },
    {
      "inputs": [],
      "name": "uln",
      "outputs": [
        {
          "internalType": "contract ILayerZeroUltraLightNodeV1",
          "name": "",
          "type": "address"
        }
      ],
      "stateMutability": "view",
      "type": "function"
    },
    {
      "inputs": [
        {
          "internalType": "uint16",
          "name": "_remoteChainId",
          "type": "uint16"
        },
        {
          "internalType": "bytes32",
          "name": "_blockHash",
          "type": "bytes32"
        },
        {
          "internalType": "uint256",
          "name": "_confirmations",
          "type": "uint256"
        },
        {
          "internalType": "bytes32",
          "name": "_data",
          "type": "bytes32"
        }
      ],
      "name": "updateHash",
      "outputs": [],
      "stateMutability": "nonpayable",
      "type": "function"
    },
    {
      "inputs": [
        {
          "internalType": "address payable",
          "name": "_to",
          "type": "address"
        },
        {
          "internalType": "uint256",
          "name": "_amount",
          "type": "uint256"
        }
      ],
      "name": "withdraw",
      "outputs": [],
      "stateMutability": "nonpayable",
      "type": "function"
    },
    {
      "inputs": [
        {
          "internalType": "uint256",
          "name": "amount",
          "type": "uint256"
        }
      ],
      "name": "withdrawOracleQuotedFee",
      "outputs": [],
      "stateMutability": "nonpayable",
      "type": "function"
    },
    {
      "inputs": [
        {
          "internalType": "address",
          "name": "_token",
          "type": "address"
        },
        {
          "internalType": "address",
          "name": "_to",
          "type": "address"
        },
        {
          "internalType": "uint256",
          "name": "_amount",
          "type": "uint256"
        }
      ],
      "name": "withdrawTokens",
      "outputs": [],
      "stateMutability": "nonpayable",
      "type": "function"
    },
    {
      "stateMutability": "payable",
      "type": "receive"
    }
  ],
  "transactionHash": "0xc74cefe592b420e664b88d3b2daed5db92d890d9e0fb8d9d1e61abb4cd311b0e",
  "args": [
    "0xfafedb041c0dd4fa2dc0d87a6b0979ee6fa7af5f",
    25925
  ],
  "numDeployments": 1,
  "solcInputHash": "4e21e694544da1d5a9591a8acbd81917",
  "bytecode": "0x60a060405260016004553480156200001657600080fd5b506040516200313338038062003133833981810160405260408110156200003c57600080fd5b508051602090910151600062000051620000e2565b600680546001600160a01b0319166001600160a01b038316908117909155604051919250906000907f8be0079c531659141344cd1fd0a4f28419497f9722a3daafe3b4186f6b6457e0908290a3506001600755620000af82620000e6565b60f01b6001600160f01b03191660805250336000908152600b602052604090208054600160ff1990911617905562000108565b3390565b600280546001600160a01b0319166001600160a01b0392909216919091179055565b60805160f01c6130086200012b60003980611175528061164f52506130086000f3fe60806040526004361061019a5760003560e01c8063704316e5116100e1578063bccc96d51161008a578063da3e339711610064578063da3e339714610786578063f136a874146107d6578063f2fde38b14610816578063f3fef3a314610856576101a1565b8063bccc96d5146106d2578063c758b01714610710578063cd84b89d14610746576101a1565b80638da5cb5b116100bb5780638da5cb5b146106635780638ec5656d146106785780639c1b1c36146106a2576101a1565b8063704316e5146105e2578063715018a61461062257806377e20df814610637576101a1565b8063421a7f5611610143578063665305791161011d5780636653057914610507578063673448dd146105505780636c473aff146105a4576101a1565b8063421a7f5614610404578063575765e21461046f5780635e35359e146104b7576101a1565b80631c783a81116101745780631c783a81146102565780632ca4a5b01461030557806330a6c22c1461034f576101a1565b806305941644146101a35780630b4d5107146101f95780631b570c2514610241576101a1565b366101a157005b005b3480156101af57600080fd5b506101a1600480360360808110156101c657600080fd5b5061ffff8135169073ffffffffffffffffffffffffffffffffffffffff602082013516906040810135906060013561089c565b34801561020557600080fd5b5061022f6004803603604081101561021c57600080fd5b5061ffff813581169160200135166109fa565b60408051918252519081900360200190f35b34801561024d57600080fd5b5061022f610a77565b34801561026257600080fd5b506102846004803603602081101561027957600080fd5b503561ffff16610a7d565b60405180831515815260200180602001828103825283818151815260200191508051906020019080838360005b838110156102c95781810151838201526020016102b1565b50505050905090810190601f1680156102f65780820380516001836020036101000a031916815260200191505b50935050505060405180910390f35b34801561031157600080fd5b506101a16004803603604081101561032857600080fd5b50803561ffff16906020013573ffffffffffffffffffffffffffffffffffffffff16610b49565b34801561035b57600080fd5b5061038f6004803603602081101561037257600080fd5b503573ffffffffffffffffffffffffffffffffffffffff16610c73565b6040805160208082528351818301528351919283929083019185019080838360005b838110156103c95781810151838201526020016103b1565b50505050905090810190601f1680156103f65780820380516001836020036101000a031916815260200191505b509250505060405180910390f35b34801561041057600080fd5b506104326004803603602081101561042757600080fd5b503561ffff16610e2f565b6040805173ffffffffffffffffffffffffffffffffffffffff90951685526020850193909352838301919091526060830152519081900360800190f35b34801561047b57600080fd5b506101a16004803603604081101561049257600080fd5b5073ffffffffffffffffffffffffffffffffffffffff81351690602001351515610e6d565b3480156104c357600080fd5b506101a1600480360360608110156104da57600080fd5b5073ffffffffffffffffffffffffffffffffffffffff813581169160208101359091169060400135610f6b565b34801561051357600080fd5b506101a16004803603606081101561052a57600080fd5b50803561ffff908116916020810135909116906040013567ffffffffffffffff16611090565b34801561055c57600080fd5b506105906004803603602081101561057357600080fd5b503573ffffffffffffffffffffffffffffffffffffffff166113c8565b604080519115158252519081900360200190f35b3480156105b057600080fd5b506105b96113f3565b6040805173ffffffffffffffffffffffffffffffffffffffff9092168252519081900360200190f35b3480156105ee57600080fd5b506101a16004803603608081101561060557600080fd5b5061ffff813516906020810135906040810135906060013561140f565b34801561062e57600080fd5b506101a1611536565b34801561064357600080fd5b5061064c61164d565b6040805161ffff9092168252519081900360200190f35b34801561066f57600080fd5b506105b9611671565b34801561068457600080fd5b506101a16004803603602081101561069b57600080fd5b503561168d565b3480156106ae57600080fd5b506101a1600480360360408110156106c557600080fd5b50803590602001356117d0565b3480156106de57600080fd5b506101a1600480360360608110156106f557600080fd5b5061ffff8135811691602081013590911690604001356118e9565b34801561071c57600080fd5b5061022f6004803603604081101561073357600080fd5b5061ffff813581169160200135166119b7565b34801561075257600080fd5b506101a16004803603602081101561076957600080fd5b503573ffffffffffffffffffffffffffffffffffffffff166119d4565b34801561079257600080fd5b506101a1600480360360608110156107a957600080fd5b5073ffffffffffffffffffffffffffffffffffffffff813581169160208101359091169060400135611ac3565b3480156107e257600080fd5b50610590600480360360208110156107f957600080fd5b503573ffffffffffffffffffffffffffffffffffffffff16611b8d565b34801561082257600080fd5b506101a16004803603602081101561083957600080fd5b503573ffffffffffffffffffffffffffffffffffffffff16611ba2565b34801561086257600080fd5b506101a16004803603604081101561087957600080fd5b5073ffffffffffffffffffffffffffffffffffffffff8135169060200135611d44565b6108a4611f8b565b73ffffffffffffffffffffffffffffffffffffffff166108c2611671565b73ffffffffffffffffffffffffffffffffffffffff161461094457604080517f08c379a000000000000000000000000000000000000000000000000000000000815260206004820181905260248201527f4f776e61626c653a2063616c6c6572206973206e6f7420746865206f776e6572604482015290519081900360640190fd5b6040805160808101825273ffffffffffffffffffffffffffffffffffffffff94851681526020808201948552818301938452437fffffffffffffffffffffffffffffffffffffffffffffffffffffffffffffffff016060830190815261ffff979097166000908152600990915291909120905181547fffffffffffffffffffffffff0000000000000000000000000000000000000000169416939093178355905160018301555160028201559051600390910155565b61ffff8082166000908152600c602090815260408083209386168352929052205480610a71576040517f08c379a000000000000000000000000000000000000000000000000000000000815260040180806020018281038252603f815260200180612f5e603f913960400191505060405180910390fd5b92915050565b60085481565b600d602090815260009182526040918290208054600180830180548651600261010094831615949094027fffffffffffffffffffffffffffffffffffffffffffffffffffffffffffffffff0190911692909204601f810186900486028301860190965285825260ff909216949293909290830182828015610b3f5780601f10610b1457610100808354040283529160200191610b3f565b820191906000526020600020905b815481529060010190602001808311610b2257829003601f168201915b5050505050905082565b610b51611f8b565b73ffffffffffffffffffffffffffffffffffffffff16610b6f611671565b73ffffffffffffffffffffffffffffffffffffffff1614610bf157604080517f08c379a000000000000000000000000000000000000000000000000000000000815260206004820181905260248201527f4f776e61626c653a2063616c6c6572206973206e6f7420746865206f776e6572604482015290519081900360640190fd5b6040518060400160405280600115158152602001610c0e83610c73565b905261ffff83166000908152600d60209081526040909120825181547fffffffffffffffffffffffffffffffffffffffffffffffffffffffffffffff00169015151781558282015180519192610c6c92600185019290910190612d46565b5050505050565b60408051602a808252606082810190935283831b91600091602082018180368337505081519192506001917f300000000000000000000000000000000000000000000000000000000000000091508390600090610ccc57fe5b60200101907effffffffffffffffffffffffffffffffffffffffffffffffffffffffffffff1916908160001a905350815160018201917f7800000000000000000000000000000000000000000000000000000000000000918491908110610d2f57fe5b60200101907effffffffffffffffffffffffffffffffffffffffffffffffffffffffffffff1916908160001a90535060008060005b6014831015610e2157610d85868460148110610d7c57fe5b1a60f81b611f8f565b8651600187019692945090925060f884901b9187918110610da257fe5b60200101907effffffffffffffffffffffffffffffffffffffffffffffffffffffffffffff1916908160001a9053508060f81b858580600101965081518110610de757fe5b60200101907effffffffffffffffffffffffffffffffffffffffffffffffffffffffffffff1916908160001a905350826001019250610d64565b50929450505050505b919050565b600960205260009081526040902080546001820154600283015460039093015473ffffffffffffffffffffffffffffffffffffffff90921692909184565b610e75611f8b565b73ffffffffffffffffffffffffffffffffffffffff16610e93611671565b73ffffffffffffffffffffffffffffffffffffffff1614610f1557604080517f08c379a000000000000000000000000000000000000000000000000000000000815260206004820181905260248201527f4f776e61626c653a2063616c6c6572206973206e6f7420746865206f776e6572604482015290519081900360640190fd5b73ffffffffffffffffffffffffffffffffffffffff919091166000908152600b6020526040902080547fffffffffffffffffffffffffffffffffffffffffffffffffffffffffffffff0016911515919091179055565b610f73611f8b565b73ffffffffffffffffffffffffffffffffffffffff16610f91611671565b73ffffffffffffffffffffffffffffffffffffffff161461101357604080517f08c379a000000000000000000000000000000000000000000000000000000000815260206004820181905260248201527f4f776e61626c653a2063616c6c6572206973206e6f7420746865206f776e6572604482015290519081900360640190fd5b61103473ffffffffffffffffffffffffffffffffffffffff84168383611fbd565b6040805173ffffffffffffffffffffffffffffffffffffffff80861682528416602082015280820183905290517f70082d08c003c5341f2401bec1c2ae1dbcdc29ae17e9cc5633fa617caa8acd4c9181900360600190a1505050565b600a5473ffffffffffffffffffffffffffffffffffffffff163314611100576040517f08c379a0000000000000000000000000000000000000000000000000000000008152600401808060200182810382526027815260200180612e806027913960400191505060405180910390fd5b61ffff8316600090815260096020526040902060038101544311156113c2576000611137826001015430639c1b1c3660e01b61204f565b905061119d816040518060400160405280600d81526020017f72656d6f7465436861696e4964000000000000000000000000000000000000008152507f000000000000000000000000000000000000000000000000000000000000000061ffff16612076565b6111e1816040518060400160405280600e81526020017f6c69627261727956657273696f6e0000000000000000000000000000000000008152508661ffff16612076565b61ffff85166000908152600d602052604090205460ff1661124d576040517f08c379a000000000000000000000000000000000000000000000000000000000815260040180806020018281038252603f815260200180612ecd603f913960400191505060405180910390fd5b604080518082018252600f81527f636f6e747261637441646472657373000000000000000000000000000000000060208083019190915261ffff88166000908152600d8252839020600190810180548551600293821615610100027fffffffffffffffffffffffffffffffffffffffffffffffffffffffffffffffff0190911692909204601f81018490048402830184019095528482526113469486949383018282801561133c5780601f106113115761010080835404028352916020019161133c565b820191906000526020600020905b81548152906001019060200180831161131f57829003601f168201915b5050505050612094565b611390816040518060400160405280600d81526020017f636f6e6669726d6174696f6e73000000000000000000000000000000000000008152508567ffffffffffffffff16612076565b815460028301546113b99173ffffffffffffffffffffffffffffffffffffffff169083906120b2565b50504360038201555b50505050565b73ffffffffffffffffffffffffffffffffffffffff166000908152600b602052604090205460ff1690565b600a5473ffffffffffffffffffffffffffffffffffffffff1681565b336000908152600b602052604090205460ff1661148d57604080517f08c379a000000000000000000000000000000000000000000000000000000000815260206004820152601f60248201527f4f7261636c653a2063616c6c6572206d75737420626520617070726f76656400604482015290519081900360640190fd5b600a54604080517f704316e500000000000000000000000000000000000000000000000000000000815261ffff87166004820152602481018690526044810185905260648101849052905173ffffffffffffffffffffffffffffffffffffffff9092169163704316e59160848082019260009290919082900301818387803b15801561151857600080fd5b505af115801561152c573d6000803e3d6000fd5b5050505050505050565b61153e611f8b565b73ffffffffffffffffffffffffffffffffffffffff1661155c611671565b73ffffffffffffffffffffffffffffffffffffffff16146115de57604080517f08c379a000000000000000000000000000000000000000000000000000000000815260206004820181905260248201527f4f776e61626c653a2063616c6c6572206973206e6f7420746865206f776e6572604482015290519081900360640190fd5b60065460405160009173ffffffffffffffffffffffffffffffffffffffff16907f8be0079c531659141344cd1fd0a4f28419497f9722a3daafe3b4186f6b6457e0908390a3600680547fffffffffffffffffffffffff0000000000000000000000000000000000000000169055565b7f000000000000000000000000000000000000000000000000000000000000000081565b60065473ffffffffffffffffffffffffffffffffffffffff1690565b611695611f8b565b73ffffffffffffffffffffffffffffffffffffffff166116b3611671565b73ffffffffffffffffffffffffffffffffffffffff161461173557604080517f08c379a000000000000000000000000000000000000000000000000000000000815260206004820181905260248201527f4f776e61626c653a2063616c6c6572206973206e6f7420746865206f776e6572604482015290519081900360640190fd5b600a54604080517f22c10776000000000000000000000000000000000000000000000000000000008152600160048201523060248201819052604482015260648101849052905173ffffffffffffffffffffffffffffffffffffffff909216916322c107769160848082019260009290919082900301818387803b1580156117bc57600080fd5b505af1158015610c6c573d6000803e3d6000fd5b600082815260056020526040902054829073ffffffffffffffffffffffffffffffffffffffff16331461184e576040517f08c379a0000000000000000000000000000000000000000000000000000000008152600401808060200182810382526028815260200180612f0c6028913960400191505060405180910390fd5b60008181526005602052604080822080547fffffffffffffffffffffffff00000000000000000000000000000000000000001690555182917f7cc135e0cebb02c3480ae5d74d377283180a2601f8f644edf7987b009316c63a91a2604080518481526020810184905281517f35b319a88b73146ae6bf1717ce61d79b09999adf3e5aacf2df3870404e6f1467929181900390910190a1505050565b6118f1611f8b565b73ffffffffffffffffffffffffffffffffffffffff1661190f611671565b73ffffffffffffffffffffffffffffffffffffffff161461199157604080517f08c379a000000000000000000000000000000000000000000000000000000000815260206004820181905260248201527f4f776e61626c653a2063616c6c6572206973206e6f7420746865206f776e6572604482015290519081900360640190fd5b61ffff9182166000908152600c6020908152604080832095909416825293909352912055565b600c60209081526000928352604080842090915290825290205481565b6119dc611f8b565b73ffffffffffffffffffffffffffffffffffffffff166119fa611671565b73ffffffffffffffffffffffffffffffffffffffff1614611a7c57604080517f08c379a000000000000000000000000000000000000000000000000000000000815260206004820181905260248201527f4f776e61626c653a2063616c6c6572206973206e6f7420746865206f776e6572604482015290519081900360640190fd5b600a80547fffffffffffffffffffffffff00000000000000000000000000000000000000001673ffffffffffffffffffffffffffffffffffffffff92909216919091179055565b611acb611f8b565b73ffffffffffffffffffffffffffffffffffffffff16611ae9611671565b73ffffffffffffffffffffffffffffffffffffffff1614611b6b57604080517f08c379a000000000000000000000000000000000000000000000000000000000815260206004820181905260248201527f4f776e61626c653a2063616c6c6572206973206e6f7420746865206f776e6572604482015290519081900360640190fd5b826113c273ffffffffffffffffffffffffffffffffffffffff821684846120ea565b600b6020526000908152604090205460ff1681565b611baa611f8b565b73ffffffffffffffffffffffffffffffffffffffff16611bc8611671565b73ffffffffffffffffffffffffffffffffffffffff1614611c4a57604080517f08c379a000000000000000000000000000000000000000000000000000000000815260206004820181905260248201527f4f776e61626c653a2063616c6c6572206973206e6f7420746865206f776e6572604482015290519081900360640190fd5b73ffffffffffffffffffffffffffffffffffffffff8116611cb6576040517f08c379a0000000000000000000000000000000000000000000000000000000008152600401808060200182810382526026815260200180612e376026913960400191505060405180910390fd5b60065460405173ffffffffffffffffffffffffffffffffffffffff8084169216907f8be0079c531659141344cd1fd0a4f28419497f9722a3daafe3b4186f6b6457e090600090a3600680547fffffffffffffffffffffffff00000000000000000000000000000000000000001673ffffffffffffffffffffffffffffffffffffffff92909216919091179055565b611d4c611f8b565b73ffffffffffffffffffffffffffffffffffffffff16611d6a611671565b73ffffffffffffffffffffffffffffffffffffffff1614611dec57604080517f08c379a000000000000000000000000000000000000000000000000000000000815260206004820181905260248201527f4f776e61626c653a2063616c6c6572206973206e6f7420746865206f776e6572604482015290519081900360640190fd5b60026007541415611e5e57604080517f08c379a000000000000000000000000000000000000000000000000000000000815260206004820152601f60248201527f5265656e7472616e637947756172643a207265656e7472616e742063616c6c00604482015290519081900360640190fd5b600260075560405160009073ffffffffffffffffffffffffffffffffffffffff84169083908381818185875af1925050503d8060008114611ebb576040519150601f19603f3d011682016040523d82523d6000602084013e611ec0565b606091505b5050905080611f3057604080517f08c379a000000000000000000000000000000000000000000000000000000000815260206004820181905260248201527f4f7261636c65436c69656e743a206661696c656420746f207769746864726177604482015290519081900360640190fd5b6040805173ffffffffffffffffffffffffffffffffffffffff851681526020810184905281517f884edad9ce6fa2440d8a54cc123490eb96d2768479d49ff9c7366125a9424364929181900390910190a15050600160075550565b3390565b600080611fa2603060fc85901c01612278565b9150611fb68360f81c600f16603001612278565b9050915091565b6040805173ffffffffffffffffffffffffffffffffffffffff8416602482015260448082018490528251808303909101815260649091019091526020810180517bffffffffffffffffffffffffffffffffffffffffffffffffffffffff167fa9059cbb0000000000000000000000000000000000000000000000000000000017905261204a90849061228d565b505050565b612057612dd2565b61205f612dd2565b61206b81868686612365565b9150505b9392505050565b608083015161208590836123c7565b608083015161204a90826123de565b60808301516120a390836123c7565b608083015161204a90826123c7565b60006120e284848460017f40429946000000000000000000000000000000000000000000000000000000006123ee565b949350505050565b8015806121965750604080517fdd62ed3e00000000000000000000000000000000000000000000000000000000815230600482015273ffffffffffffffffffffffffffffffffffffffff848116602483015291519185169163dd62ed3e91604480820192602092909190829003018186803b15801561216857600080fd5b505afa15801561217c573d6000803e3d6000fd5b505050506040513d602081101561219257600080fd5b5051155b6121eb576040517f08c379a0000000000000000000000000000000000000000000000000000000008152600401808060200182810382526036815260200180612f9d6036913960400191505060405180910390fd5b6040805173ffffffffffffffffffffffffffffffffffffffff8416602482015260448082018490528251808303909101815260649091019091526020810180517bffffffffffffffffffffffffffffffffffffffffffffffffffffffff167f095ea7b30000000000000000000000000000000000000000000000000000000017905261204a90849061228d565b80603960ff82161115610e2a57600701919050565b60006122ef826040518060400160405280602081526020017f5361666545524332303a206c6f772d6c6576656c2063616c6c206661696c65648152508573ffffffffffffffffffffffffffffffffffffffff166127a19092919063ffffffff16565b80519091501561204a5780806020019051602081101561230e57600080fd5b505161204a576040517f08c379a000000000000000000000000000000000000000000000000000000000815260040180806020018281038252602a815260200180612f34602a913960400191505060405180910390fd5b61236d612dd2565b61237d85608001516101006127b0565b505091835273ffffffffffffffffffffffffffffffffffffffff1660208301527fffffffff0000000000000000000000000000000000000000000000000000000016604082015290565b6123d482600383516127ea565b61204a82826128be565b6123ea826000836127ea565b5050565b6004546040805130606090811b60208084019190915260348084018690528451808503909101815260549093018452825192810192909220908801939093526000838152600590915281812080547fffffffffffffffffffffffff00000000000000000000000000000000000000001673ffffffffffffffffffffffffffffffffffffffff8a16179055905182917fb5e6e01e79f91267dc17b4e6314d5d4d03593d2ceee0fbb452b750bd70ea5af991a2600082600080886000015189602001518a604001518b606001518a8d6080015160000151604051602401808973ffffffffffffffffffffffffffffffffffffffff1681526020018881526020018781526020018673ffffffffffffffffffffffffffffffffffffffff168152602001857bffffffffffffffffffffffffffffffffffffffffffffffffffffffff1916815260200184815260200183815260200180602001828103825283818151815260200191508051906020019080838360005b83811015612578578181015183820152602001612560565b50505050905090810190601f1680156125a55780820380516001836020036101000a031916815260200191505b509950505050505050505050604051602081830303815290604052907bffffffffffffffffffffffffffffffffffffffffffffffffffffffff19166020820180517bffffffffffffffffffffffffffffffffffffffffffffffffffffffff83818316178352505050509050600260009054906101000a900473ffffffffffffffffffffffffffffffffffffffff1673ffffffffffffffffffffffffffffffffffffffff16634000aea08887846040518463ffffffff1660e01b8152600401808473ffffffffffffffffffffffffffffffffffffffff16815260200183815260200180602001828103825283818151815260200191508051906020019080838360005b838110156126bf5781810151838201526020016126a7565b50505050905090810190601f1680156126ec5780820380516001836020036101000a031916815260200191505b50945050505050602060405180830381600087803b15801561270d57600080fd5b505af1158015612721573d6000803e3d6000fd5b505050506040513d602081101561273757600080fd5b505161278e576040517f08c379a0000000000000000000000000000000000000000000000000000000008152600401808060200182810382526023815260200180612e5d6023913960400191505060405180910390fd5b5060048054600101905595945050505050565b60606120e284846000856128d8565b6127b8612e07565b60208206156127cd5760208206602003820191505b506020828101829052604080518085526000815290920101905290565b6017811161280b576128058360e0600585901b168317612a92565b5061204a565b60ff811161283557612828836018611fe0600586901b1617612a92565b5061280583826001612aaa565b61ffff811161286057612853836019611fe0600586901b1617612a92565b5061280583826002612aaa565b63ffffffff811161288d5761288083601a611fe0600586901b1617612a92565b5061280583826004612aaa565b67ffffffffffffffff811161204a576128b183601b611fe0600586901b1617612a92565b506113c283826008612aaa565b6128c6612e07565b61206f83846000015151848551612ac3565b606082471015612933576040517f08c379a0000000000000000000000000000000000000000000000000000000008152600401808060200182810382526026815260200180612ea76026913960400191505060405180910390fd5b61293c85612bab565b6129a757604080517f08c379a000000000000000000000000000000000000000000000000000000000815260206004820152601d60248201527f416464726573733a2063616c6c20746f206e6f6e2d636f6e7472616374000000604482015290519081900360640190fd5b6000808673ffffffffffffffffffffffffffffffffffffffff1685876040518082805190602001908083835b60208310612a1057805182527fffffffffffffffffffffffffffffffffffffffffffffffffffffffffffffffe090920191602091820191016129d3565b6001836020036101000a03801982511681845116808217855250505050505090500191505060006040518083038185875af1925050503d8060008114612a72576040519150601f19603f3d011682016040523d82523d6000602084013e612a77565b606091505b5091509150612a87828286612bb1565b979650505050505050565b612a9a612e07565b61206f8384600001515184612c6f565b612ab2612e07565b6120e2848560000151518585612cba565b612acb612e07565b8251821115612ad957600080fd5b84602001518285011115612b0357612b0385612afb8760200151878601612d18565b600202612d2f565b600080865180518760208301019350808887011115612b225787860182525b505050602084015b60208410612b6757805182527fffffffffffffffffffffffffffffffffffffffffffffffffffffffffffffffe09093019260209182019101612b2a565b5181517fffffffffffffffffffffffffffffffffffffffffffffffffffffffffffffffff60208690036101000a019081169019919091161790525083949350505050565b3b151590565b60608315612bc057508161206f565b825115612bd05782518084602001fd5b816040517f08c379a00000000000000000000000000000000000000000000000000000000081526004018080602001828103825283818151815260200191508051906020019080838360005b83811015612c34578181015183820152602001612c1c565b50505050905090810190601f168015612c615780820380516001836020036101000a031916815260200191505b509250505060405180910390fd5b612c77612e07565b83602001518310612c9357612c93848560200151600202612d2f565b835180516020858301018481535080851415612cb0576001810182525b5093949350505050565b612cc2612e07565b84602001518483011115612cdf57612cdf85858401600202612d2f565b60006001836101000a039050855183868201018583198251161781525080518487011115612d0d5783860181525b509495945050505050565b600081831115612d29575081610a71565b50919050565b8151612d3b83836127b0565b506113c283826128be565b828054600181600116156101000203166002900490600052602060002090601f016020900481019282612d7c5760008555612dc2565b82601f10612d9557805160ff1916838001178555612dc2565b82800160010185558215612dc2579182015b82811115612dc2578251825591602001919060010190612da7565b50612dce929150612e21565b5090565b6040805160a081018252600080825260208201819052918101829052606081019190915260808101612e02612e07565b905290565b604051806040016040528060608152602001600081525090565b5b80821115612dce5760008155600101612e2256fe4f776e61626c653a206e6577206f776e657220697320746865207a65726f2061646472657373756e61626c6520746f207472616e73666572416e6443616c6c20746f206f7261636c654f7261636c65436c69656e743a2063616c6c6572206d757374206265204c617965725a65726f2e416464726573733a20696e73756666696369656e742062616c616e636520666f722063616c6c436861696e6c696e6b4f7261636c65436c69656e743a206e6f2064656c6976657279416464726573734c6f6f6b757020666f72205f647374436861696e4964536f75726365206d75737420626520746865206f7261636c65206f662074686520726571756573745361666545524332303a204552433230206f7065726174696f6e20646964206e6f742073756363656564436861696e6c696e6b204f7261636c653a206e6f7420737570706f7274696e67207468652028647374436861696e2c206c69627261727956657273696f6e295361666545524332303a20617070726f76652066726f6d206e6f6e2d7a65726f20746f206e6f6e2d7a65726f20616c6c6f77616e6365a264697066735822122018677e8c00666765ed41ab38290eb846354463c8bc17d7737b2f508d3b29f58564736f6c63430007060033",
  "devdoc": {
    "kind": "dev",
    "methods": {
      "owner()": {
        "details": "Returns the address of the current owner."
      },
      "renounceOwnership()": {
        "details": "Leaves the contract without owner. It will not be possible to call `onlyOwner` functions anymore. Can only be called by the current owner. NOTE: Renouncing ownership will leave the contract without an owner, thereby removing any functionality that is only available to the owner."
      },
      "transferOwnership(address)": {
        "details": "Transfers ownership of the contract to a new account (`newOwner`). Can only be called by the current owner."
      }
    },
    "version": 1
  },
  "userdoc": {
    "kind": "user",
    "methods": {},
    "version": 1
  },
  "storageLayout": {
    "storage": [
      {
        "astId": 306,
        "contract": "contracts/chainlink/ChainlinkOracleClient.sol:ChainlinkOracleClient",
        "label": "ens",
        "offset": 0,
        "slot": "0",
        "type": "t_contract(ENSInterface)888"
      },
      {
        "astId": 308,
        "contract": "contracts/chainlink/ChainlinkOracleClient.sol:ChainlinkOracleClient",
        "label": "ensNode",
        "offset": 0,
        "slot": "1",
        "type": "t_bytes32"
      },
      {
        "astId": 310,
        "contract": "contracts/chainlink/ChainlinkOracleClient.sol:ChainlinkOracleClient",
        "label": "link",
        "offset": 0,
        "slot": "2",
        "type": "t_contract(LinkTokenInterface)983"
      },
      {
        "astId": 312,
        "contract": "contracts/chainlink/ChainlinkOracleClient.sol:ChainlinkOracleClient",
        "label": "oracle",
        "offset": 0,
        "slot": "3",
        "type": "t_contract(OperatorInterface)1039"
      },
      {
        "astId": 315,
        "contract": "contracts/chainlink/ChainlinkOracleClient.sol:ChainlinkOracleClient",
        "label": "requestCount",
        "offset": 0,
        "slot": "4",
        "type": "t_uint256"
      },
      {
        "astId": 319,
        "contract": "contracts/chainlink/ChainlinkOracleClient.sol:ChainlinkOracleClient",
        "label": "pendingRequests",
        "offset": 0,
        "slot": "5",
        "type": "t_mapping(t_bytes32,t_address)"
      },
      {
        "astId": 2484,
        "contract": "contracts/chainlink/ChainlinkOracleClient.sol:ChainlinkOracleClient",
        "label": "_owner",
        "offset": 0,
        "slot": "6",
        "type": "t_address"
      },
      {
        "astId": 4065,
        "contract": "contracts/chainlink/ChainlinkOracleClient.sol:ChainlinkOracleClient",
        "label": "_status",
        "offset": 0,
        "slot": "7",
        "type": "t_uint256"
      },
      {
        "astId": 10698,
        "contract": "contracts/chainlink/ChainlinkOracleClient.sol:ChainlinkOracleClient",
        "label": "calledInBlock",
        "offset": 0,
        "slot": "8",
        "type": "t_uint256"
      },
      {
        "astId": 10702,
        "contract": "contracts/chainlink/ChainlinkOracleClient.sol:ChainlinkOracleClient",
        "label": "jobs",
        "offset": 0,
        "slot": "9",
        "type": "t_mapping(t_uint16,t_struct(Job)10691_storage)"
      },
      {
        "astId": 10706,
        "contract": "contracts/chainlink/ChainlinkOracleClient.sol:ChainlinkOracleClient",
        "label": "uln",
        "offset": 0,
        "slot": "10",
        "type": "t_contract(ILayerZeroUltraLightNodeV1)11942"
      },
      {
        "astId": 10710,
        "contract": "contracts/chainlink/ChainlinkOracleClient.sol:ChainlinkOracleClient",
        "label": "approvedAddresses",
        "offset": 0,
        "slot": "11",
        "type": "t_mapping(t_address,t_bool)"
      },
      {
        "astId": 10716,
        "contract": "contracts/chainlink/ChainlinkOracleClient.sol:ChainlinkOracleClient",
        "label": "chainPriceLookup",
        "offset": 0,
        "slot": "12",
        "type": "t_mapping(t_uint16,t_mapping(t_uint16,t_uint256))"
      },
      {
        "astId": 10720,
        "contract": "contracts/chainlink/ChainlinkOracleClient.sol:ChainlinkOracleClient",
        "label": "deliveryAddressLookup",
        "offset": 0,
        "slot": "13",
        "type": "t_mapping(t_uint16,t_struct(CachedAddressString)10696_storage)"
      }
    ],
    "types": {
      "t_address": {
        "encoding": "inplace",
        "label": "address",
        "numberOfBytes": "20"
      },
      "t_bool": {
        "encoding": "inplace",
        "label": "bool",
        "numberOfBytes": "1"
      },
      "t_bytes32": {
        "encoding": "inplace",
        "label": "bytes32",
        "numberOfBytes": "32"
      },
      "t_contract(ENSInterface)888": {
        "encoding": "inplace",
        "label": "contract ENSInterface",
        "numberOfBytes": "20"
      },
      "t_contract(ILayerZeroUltraLightNodeV1)11942": {
        "encoding": "inplace",
        "label": "contract ILayerZeroUltraLightNodeV1",
        "numberOfBytes": "20"
      },
      "t_contract(LinkTokenInterface)983": {
        "encoding": "inplace",
        "label": "contract LinkTokenInterface",
        "numberOfBytes": "20"
      },
      "t_contract(OperatorInterface)1039": {
        "encoding": "inplace",
        "label": "contract OperatorInterface",
        "numberOfBytes": "20"
      },
      "t_mapping(t_address,t_bool)": {
        "encoding": "mapping",
        "key": "t_address",
        "label": "mapping(address => bool)",
        "numberOfBytes": "32",
        "value": "t_bool"
      },
      "t_mapping(t_bytes32,t_address)": {
        "encoding": "mapping",
        "key": "t_bytes32",
        "label": "mapping(bytes32 => address)",
        "numberOfBytes": "32",
        "value": "t_address"
      },
      "t_mapping(t_uint16,t_mapping(t_uint16,t_uint256))": {
        "encoding": "mapping",
        "key": "t_uint16",
        "label": "mapping(uint16 => mapping(uint16 => uint256))",
        "numberOfBytes": "32",
        "value": "t_mapping(t_uint16,t_uint256)"
      },
      "t_mapping(t_uint16,t_struct(CachedAddressString)10696_storage)": {
        "encoding": "mapping",
        "key": "t_uint16",
        "label": "mapping(uint16 => struct ChainlinkOracleClient.CachedAddressString)",
        "numberOfBytes": "32",
        "value": "t_struct(CachedAddressString)10696_storage"
      },
      "t_mapping(t_uint16,t_struct(Job)10691_storage)": {
        "encoding": "mapping",
        "key": "t_uint16",
        "label": "mapping(uint16 => struct ChainlinkOracleClient.Job)",
        "numberOfBytes": "32",
        "value": "t_struct(Job)10691_storage"
      },
      "t_mapping(t_uint16,t_uint256)": {
        "encoding": "mapping",
        "key": "t_uint16",
        "label": "mapping(uint16 => uint256)",
        "numberOfBytes": "32",
        "value": "t_uint256"
      },
      "t_string_storage": {
        "encoding": "bytes",
        "label": "string",
        "numberOfBytes": "32"
      },
      "t_struct(CachedAddressString)10696_storage": {
        "encoding": "inplace",
        "label": "struct ChainlinkOracleClient.CachedAddressString",
        "members": [
          {
            "astId": 10693,
            "contract": "contracts/chainlink/ChainlinkOracleClient.sol:ChainlinkOracleClient",
            "label": "cached",
            "offset": 0,
            "slot": "0",
            "type": "t_bool"
          },
          {
            "astId": 10695,
            "contract": "contracts/chainlink/ChainlinkOracleClient.sol:ChainlinkOracleClient",
            "label": "addressString",
            "offset": 0,
            "slot": "1",
            "type": "t_string_storage"
          }
        ],
        "numberOfBytes": "64"
      },
      "t_struct(Job)10691_storage": {
        "encoding": "inplace",
        "label": "struct ChainlinkOracleClient.Job",
        "members": [
          {
            "astId": 10684,
            "contract": "contracts/chainlink/ChainlinkOracleClient.sol:ChainlinkOracleClient",
            "label": "oracle",
            "offset": 0,
            "slot": "0",
            "type": "t_address"
          },
          {
            "astId": 10686,
            "contract": "contracts/chainlink/ChainlinkOracleClient.sol:ChainlinkOracleClient",
            "label": "id",
            "offset": 0,
            "slot": "1",
            "type": "t_bytes32"
          },
          {
            "astId": 10688,
            "contract": "contracts/chainlink/ChainlinkOracleClient.sol:ChainlinkOracleClient",
            "label": "fee",
            "offset": 0,
            "slot": "2",
            "type": "t_uint256"
          },
          {
            "astId": 10690,
            "contract": "contracts/chainlink/ChainlinkOracleClient.sol:ChainlinkOracleClient",
            "label": "calledInBlock",
            "offset": 0,
            "slot": "3",
            "type": "t_uint256"
          }
        ],
        "numberOfBytes": "128"
      },
      "t_uint16": {
        "encoding": "inplace",
        "label": "uint16",
        "numberOfBytes": "2"
      },
      "t_uint256": {
        "encoding": "inplace",
        "label": "uint256",
        "numberOfBytes": "32"
      }
    }
  }
}